:100000000C94E8020C9420030C9420030C9420031D
:100010000C9420030C9420030C9420030C942003D4
:100020000C9420030C9420030C94D7280C94932850
:100030000C94D4290C9420030C9420030C942003DA
:100040000C9420030C9420030C9420030C942003A4
:100050000C9420030C94B0290C9420030C942003DE
:100060000C9420030C9420030C9420030C94200384
:100070000C9420030C9420030C9420030C94200374
:100080000C9420030C9420030C9420030C94200364
:100090000C9420030C9420030C9420030C94200354
:1000A0000C9420030C9420030C9420031E0F0500D5
:1000B000047F3F1F6432141E140A05FD377A585A14
:1000C000000004E6D6B446020021011600000074C8
:1000D0002FE5A3E0009A00825D003D8889C6543672
:1000E000C3174FE4E1780B7745B561B6F155DFEB07
:1000F000CDFBD37649CBD73782114149458A6A086F
:100100000BE3E7E3EDD23DCA42EA371B7760E0B686
:10011000F66FCAE23FC8E6CFAF41D193759457D48A
:10012000932BF970BDAE811C566E073E1F118809D6
:100130001F6FBCECAEDD7B3513C747E41E37F3DA27
:10014000C1887BFEC010FCE72FC53B2121B3B593CE
:10015000224DA37928F8FBD3C7D82C000000002734
:10016000B4B5B7516D650600019E019B010000CC3E
:1001700086DAB2B1C467FB020000000004595A00DD
:100180000101010101010101010202020202020258
:10019000020203030303030303030404040404042B
:1001A00004050505050506060606060707070707F1
:1001B00008080808090909090A0A0A0B0B0B0C0CA4
:1001C0000C0D0D0D0E0E0E0F0F0F10101111111240
:1001D0001213131414151516161717181819191ABF
:1001E0001A1B1B1C1D1D1E1E1F2020212222232422
:1001F00024252626272829292A2B2C2D2D2E2F3061
:10020000313232333435363738393A3B3C3D3E3F74
:10021000404142434445464748494A4C4D4E4F5061
:10022000515354555658595A5B5D5E5F616264651F
:100230006668696B6C6D6F7072737577787A7B7DA9
:100240007E8082838587888A8C8E8F9193959698FD
:100250009A9C9EA0A2A3A5A7A9ABADAFB1B3B5B719
:10026000BABCBEC0C2C4C6C9CBCDCFD1D4D6D8DBF0
:10027000DDDFE2E4E7E9EBEEF0F3F5F8FAFDFFFF8E
:10028000AA7F554004000102032223252628292A9B
:100290002C2D2F3032333536383A3B3D3E404243E9
:1002A0004547494A4C4E5051535557595A5C5E6028
:1002B00062646668696B6D6F71737577797B7D7F3A
:1002C00081838587898A8C8E90929496989A9C9E39
:1002D0009FA1A3A5A7A8AAACAEAFB1B3B4B6B8B955
:1002E000BBBCBEBFC1C2C3C5C6C7C9CACBCCCDCEBD
:1002F000D0D1D2D2D3D4D5D6D7D7D8D9D9DADADBA0
:10030000DBDBDCDCDCDCDCDDDDDDDDDCDCDCDCDC2B
:10031000DBDBDBDADAD9D9D8D7D7D6D5D4D3D2D26A
:10032000D1D0CECDCCCBCAC9C7C6C5C3C2C1BFBE52
:10033000BCBBB9B8B6B4B3B1AFAEACAAA8A7A5A3BD
:10034000A19F9E9C9A98969492908E8C8A8987857C
:1003500083817F7D7B79777573716F6D6B6968665B
:100360006462605E5C5A5957555351504E4C4A492D
:1003700047454342403E3D3B3A3836353332302FD5
:100380002D2C2A29282625232201000100F0029B7A
:100390000E800E000002000200EC029B0E800E0098
:1003A0000003000100F1029B0E800E000004000219
:1003B00000D6029B0E800EA20505000100F2029BF2
:1003C0000E800E000006000200D8029B0E800E0078
:1003D0000007000200EE029B0E800E0000080001E4
:1003E00000F3029B0E800E000012000200F4029B3C
:1003F0000E800E000013000200F6029B0E800E001D
:100400000014000100F8029B0E800E000015000091
:100410000000002805DC150000E0000600190006B9
:1004200060FF0961A1010962150026FF0095207592
:100430000881020963150026FF00952075089102C6
:10044000C005010906A101050719E029E7150025E6
:10045000019508750181029501750881010507194B
:100460000029FF150026FF00950675088100050884
:1004700019012905150025019505750191029501C0
:1004800075039101C009024200020100A0FA0904AB
:1004900000000103010100092111010001224400B3
:1004A00007058103080001090401000203000000A0
:1004B0000921110100012222000705820320000109
:1004C0000705030320000112010002000000089B41
:1004D000350E000002010203011C03760069006171
:1004E000006C003A0066003600340063003200629F
:1004F000003300630000000C034B006500790056D8
:1005000000320000001403440072006F00700020ED
:100510000049006E0063002E00000004030904007F
:1005200000000000000000000000000000000000CB
:1005300000000000000000000000000000000000BB
:100540000000007E0F00D4FFFFFFC700000078000E
:10055000000000000000002A2B280000000000001E
:100560000000000000000000000029000000002C36
:100570001E3420212224342627252E362D373827D5
:100580001E1F202122232425263333362E37381FE1
:100590000405060708090A0B0C0D0E0F10111213A3
:1005A0001415161718191A1B1C1D2F3130232D3541
:1005B0000405060708090A0B0C0D0E0F1011121383
:1005C0001415161718191A1B1C1D2F3130354C0025
:1005D00011241FBECFEFDAE0DEBFCDBF04B603FEAD
:1005E00018C080911C0490911D04A0911E04B0912C
:1005F0001F048730904BA740B04B59F410921C0455
:1006000010921D0410921E0410921F04E0E0F8E303
:10061000099524E0AEE4B1E001C01D92AC31B2070F
:10062000E1F711E0A0E0B1E0E0EAF6E602C00590F3
:100630000D92AE34B107D9F70E94FB290C94EC322D
:100640000C940000482F20911A049091D10359E096
:10065000291302C080E0089530E0529FF001539FBB
:10066000F00D1124EE52FC4F8181681306C0808189
:10067000481303C085818111EECF2F5F3F4F277054
:10068000E7CFE8EDF0E080818E7F80831092E2007A
:100690001092DA001092E100A0EEB0E08C9181603F
:1006A0008C9380818F77808319BCA7EDB0E08C910B
:1006B0008E7F8C9380818F7E80831092BA03089501
:1006C0002091E4003091E50095E6A9012091EC002D
:1006D000822F817020FF06C08091E80080FF06C055
:1006E00080E008952091E80022FD1AC08091C703A0
:1006F000882389F0853089F08091EB0085FD0FC05B
:100700002091E4003091E50042175307F9F291502F
:10071000E1F684E0089582E0089583E0089581E0A1
:1007200008958091C90387FF13C08091E80082FF7C
:1007300006C08091E8008B778093E80004C0809128
:10074000C7038111F2CF08958091C7038823D9F39D
:100750008091E80080FFF8CF8091E8008E77ECCFA1
:10076000982F9093E900242F762F50E0891731F0CD
:100770007091EC002091ED005091F00021FD07C038
:100780009F5F973071F78093E90081E00895309181
:10079000EB003E7F3093EB003091ED003D7F3093D6
:1007A000ED003091EB0031603093EB007093EC0082
:1007B0002093ED005093F0002091EE0027FDE0CF54
:1007C00080E00895B0E0A0E0E8EEF3E00C9427317B
:1007D000C8EDD0E088818F7E8883E7EDF0E08081EE
:1007E0008160808384E082BF81E08093BA03888146
:1007F0008E7F888302EE10E0F80110821092DA00FA
:1008000081EEC82ED12CF601108288818F778883E3
:1008100088818068888388818F7D888319BC109245
:10082000C7031092C8031092C6031092C50390EE3E
:10083000E92EF12CF70180818B7F80838881816094
:10084000888342E060E080E00E94B003F60180818E
:100850008E7F8083F80180818160808380818860C1
:100860008083F70180818E7F808388818061888387
:10087000CDB7DEB7E8E00C944331FC018091CF03A3
:100880009091D00386179707A0F06115710529F4A0
:100890009091E8009E779093E80090E061157105D3
:1008A00051F4911108C08091E80082FF34C080E0CB
:1008B0000895BC01F2CF8091C7038823C1F1853030
:1008C000C1F18091E80083FD30C08091E80082FD95
:1008D000EACF8091E80080FFE1CF8091F300209182
:1008E000F200382F6115710519F02830310558F0E4
:1008F00091E02830310509F090E02091E8002E7752
:100900002093E800CBCF81918093F1006150710971
:100910002F5F3F4FE7CF8091C703882341F0853099
:1009200041F08091E80083FFBECF81E0089582E02E
:10093000089583E008950895089508958091BC0373
:1009400008959C014FB7F8948091B6039091B70336
:10095000A091B803B091B9034FBF821B930B0895C8
:100960002FB7F8948091B6039091B703A091B80384
:10097000B091B9032FBF08959C01FC0132969FEFFF
:1009800080E04191461751F09F3F19F4411101C099
:10099000982F8F5F8630A9F79F3F09F40895290F9C
:1009A000311D97FD3A95F90162830895E091B303F3
:1009B000F091B403309729F00190F081E02D099572
:1009C000089580E008954115510511F0FA01099547
:1009D0000895DC016091AA038091AB03962F8913DF
:1009E00001C00895292F30E0F901EE0FFF1FEE55E9
:1009F000FC4F408151814A175B07A1F487E08A9F31
:100A0000A0018B9F500D11244F5F5C4F81E0FA01D4
:100A100084839613E6CF2F5F3F4F237033272093B5
:100A2000AA0308952F5F3F4F922F9370D8CF109253
:100A3000FF021092FE02E1E0F3E08581811102C025
:100A400014821682379683E0E933F807B1F70895E8
:100A5000B0E0A0E0EEE2F5E00C9425318FEF9FEFDF
:100A60004430510508F469C04091B30241FB882726
:100A700080F990E0880F991F42FB002700F910E0F1
:100A8000000F111F000F111F802B912B40FBCC2456
:100A9000C0F8D12C8C299D2943FB222720F9C22F95
:100AA000E0E0DE2F53E0CC0FDD1F5A95E1F78C2BF1
:100AB0009D2B44FBAA27A0F9B0E0E4E0AA0FBB1FDE
:100AC000EA95E1F78A2B9B2B45FBEE27E0F9F0E056
:100AD000A5E0EE0FFF1FAA95E1F78E2B9F2B46FB9B
:100AE000222720F930E0B6E0220F331FBA95E1F754
:100AF000822B932B47FB222720F930E03695322FAB
:100B0000222737952795822B932B2091B402322FE1
:100B10003170F32EE82EF92A26952170B22EBB0CE7
:100B2000A82EBF28C501BB0CAA0BBB0BFB01808301
:100B30009183A283B38390E080E0CDB7DEB7EAE093
:100B40000C9441318091D6029091D70290931B0171
:100B500080931A010895E3EEF1E090E080E063E60F
:100B600077E24AE857E229ED36E2778366835187D8
:100B700040873387228797878687019670968830CB
:100B8000910599F7089581152CE7920741F420917A
:100B90001E0130911F01232B11F490E080E0089595
:100BA000FA01811101C0FB01099508958091C701E7
:100BB000982F9E7F29F4817082608093C7010895E9
:100BC0008434E8F381708264F8CFAF92BF92DF92F1
:100BD000EF92FF920F931F93CF93DF93082F162F5F
:100BE000E901E42FF0E0E158FE4F611110C0E491FB
:100BF0005E2F4E2F4983E8835A83DF91CF911F9157
:100C00000F91FF90EF90DF90BF90AF900895E62E88
:100C1000F12C4491D42EE42FF0E026E0829FC00115
:100C200011242FEF30E0B9010E94D930802F90E0DD
:100C3000880F991F55E5569FD001579FB00D11247D
:100C40008A1B9B0B982F990F890F5901AE18BF086B
:100C5000AE9ED001AF9EB00DBE9EB00D11245B2F95
:100C6000189F80011124012F11275901A01AB10AE0
:100C7000AE9E8001AF9E100DBE9E100D1124590135
:100C8000A81AB108AE9CC001AF9C900DBE9C900DFF
:100C90001124892F9927281B390B2E9FC0012F9FC4
:100CA000900D3E9F900D1124E92F62307105A1F047
:100CB00050F46115710509F49DCF6130710581F023
:100CC000EB2F512F97CF6430710569F080F06630BB
:100CD000710509F48FCFF4CFE42F4B2F592F8ACF12
:100CE000E42F412F87CFEB2F542F492F83CF4B2F4A
:100CF0005D2DE12F7FCF80E00895F894E82FE295F5
:100D0000EF70F0E031A1282F2F7081E090E001C05A
:100D1000880F2A95EAF7982F9095932391A392A193
:100D2000892B82A3789408959091B30292FF10C00A
:100D300041E0282F2471243009F040E031E0282FD1
:100D40002871283009F030E0431711F02CE0822799
:100D500093FF10C041E0282F2471243109F040E0B6
:100D600031E0282F2871283109F030E0431711F0C5
:100D70002CE082273091B40230FF10C051E0282FC0
:100D80002171213009F050E041E0282F28712830EE
:100D900009F040E0541711F029E0822731FF10C01C
:100DA00041E0282F2171213109F040E031E0282F66
:100DB0002871283109F030E0431711F029E082272B
:100DC00094FD877E089582389105B9F1B0F481339E
:100DD000910509F47DC048F48932910509F46DC08C
:100DE0008A32910509F47BC008958533910509F491
:100DF0005FC08933910509F10895833E9105D9F1CA
:100E000038F4803E910529F1823E910579F10895EB
:100E1000863E9105D9F1873E910509F43EC0843E96
:100E2000910541F52091B40221FF24C08091B302C5
:100E300084FD19C087EE90E008952091B3022370DD
:100E400009F05AC02091B40223FF14C089E290E057
:100E500008952091B30220FD38C03091B40230FFD4
:100E600009C024FF43C090E080E008952091B302C0
:100E700022FDF7CF08952091B30222FD3AC03091B0
:100E8000B40230FD39C024FFF5CFEDCF2091B3027D
:100E900023FFF0CF24FDE7CFCDCF2091B30223FD78
:100EA0002EC03091B40231FFEECF84EE90E0089571
:100EB0002091B30225FFDECFC9CF2091B30225FDDB
:100EC00021C02091B40223FFD5CF89E390E0D2CF97
:100ED0002091B30226FFCECF8AE290E008952091C0
:100EE000B30226FFC7CF81E390E0089583EE90E040
:100EF000089582EE90E0089580EE90E0089586EEE9
:100F000090E0089585E390E008951F93CF93DF93D9
:100F10000E94E306EC01C11582E5D80708F03FC046
:100F2000C11590E5D90708F0C2C0C83ED105C0F48C
:100F3000C03ED10580F4C53AD10548F4C430D1058E
:100F400050F4C130D10539F0D0E0C0E004C0CD3C50
:100F5000D105D0F3D065CE01DF91CF911F910895D7
:100F6000C11580E4D80708F053C0C11590E2D90735
:100F700008F0B7C0C11581E0D80730F38D2F0E946B
:100F80009406182FCE0199270E94E306C12FD0E0C6
:100F9000DC2FCC27CC27DF71C82BD92BDCCFC03876
:100FA00092E5D907A8F4C03682E5D80708F063C0F7
:100FB000C03492E5D90708F049C0C03282E5D807AD
:100FC00088F1CF71D0E0DC2FCC27C16FD06AC3CFBE
:100FD000C03C92E5D90780F48C2F8F71C03AD2457E
:100FE00008F45EC00E949406C82FD0E0DC2FCC2706
:100FF000CC27DF71D062AFCFC03E82E5D80708F0C2
:10100000A3CFDC2FCC27CC27DF71C06FD06AA3CF52
:10101000CE0199270E94E306CC27DF70C82BD92B7D
:10102000D06A99CF2C2F2695269590E2299F900182
:1010300011248C2F8370C1E0D0E002C0CC0FDD1FE3
:101040008A95E2F7C22BD32BDD6885CF2C2F26950E
:101050002695277080E2289F900111248C2F8370A1
:10106000C1E0D0E002C0CC0FDD1F8A95E2F7C22BB1
:10107000D32BDC6870CF2C2F26952695277090E215
:10108000299F900111248C2F8370C1E0D0E002C011
:10109000CC0FDD1F8A95E2F7C22BD32BDA685BCF2A
:1010A000C82FD0E0DC2FCC27C46FD06A54CF8C2F50
:1010B0008F710E94940655E0D695C7955A95E1F731
:1010C000CF70D0E0DC2FCC27282F30E084FF05C084
:1010D00044E0220F331F4A95E1F7C22BD32BD0698E
:1010E0003ACF8D2F8F710E949406182FCE01992729
:1010F0000E94E306C12FD0E0DC2FCC27CC27DF7184
:10110000C82BD92B77CF80917501882331F01092AD
:10111000750110927401109273010895CF93C82F36
:101120008091B40282FF0CC0809175018C1741F050
:101130000E94B0049093740180937301C093750171
:10114000CF91089590917501292F282361F0809502
:10115000892380937501882339F00E94B00490930D
:10116000740180937301089590E080E0F8CF80953A
:1011700090911B04982390931B040895809590915F
:10118000B50298239093B50208959091B502892BEA
:101190008093B502089510926A011092690110922D
:1011A000680108958091D8029091D902892B89F025
:1011B0000E94B0042091730130917401AC01421B74
:1011C000530B81E02091D8023091D9024217530786
:1011D00008F480E08170089590916701292F2823F9
:1011E00021F08095892380936701089580911A04E6
:1011F0009091D103981301C008958F5F8770FACF43
:1012000091111DC08330C8F4EBE5F1E050E040E0FF
:10121000219130E0082E02C0369527950A94E2F716
:1012200021703327042E01C0220F0A94EAF7922B73
:101230004F5F5F4F4330510559F7892F089590E074
:10124000FCCF911122C0833000F591E001C0990FCD
:101250008A95EAF7292FEBE5F1E050E040E070E0F5
:101260003191DF011197CB01042E02C0969587952D
:101270000A94E2F7817081958327822383278C93D8
:101280004F5F5F4F4330510559F7089580937D01BB
:10129000089590917D0121E030E0F90101C0EE0F49
:1012A0008A95EAF7D90102C0AA0FBB1F6A95E2F737
:1012B000EA2B01C0220F4A95EAF7892F8E23E81303
:1012C00005C0292B822F0E944609089520952923C5
:1012D000F9CF21E030E001C0220F8A95EAF720958E
:1012E00080917D0182230E944609089590916A01B0
:1012F0008095892380936A01282F277069F48917C4
:1013000059F09091B40292FF07C086958695869514
:101310000E9469090E94CB08089521E030E001C0D5
:10132000220F8A95EAF780917D01822B0E9446095F
:1013300008959091B40292FF10C098E0899F9001A7
:101340001124622B60936A010E948D090E94B004EF
:10135000909369018093680108950E948D09089512
:1013600080937601089592959F70963091F058F48D
:10137000925F9F70923058F4803F19F030F4883EAD
:1013800030F481E008959A5FF4CF843FD1F380E098
:101390000895883EB0F3813FD1F7F3CF9C013A9591
:1013A00021153F4150F5FC01EE27F170BC01662785
:1013B0007270AC01442754709C012227387094FF4E
:1013C0000EC080E1EF2B09F480E0672B09F080620A
:1013D000452B09F08064232B89F08068089581E013
:1013E000EF2B09F480E0672B09F08260452B09F0B0
:1013F0008460232B19F08860089580E008950F938E
:101400001F93CF93DF938B01EA019091C703943030
:1014100061F58093E9008FEF9091E800815095FD90
:1014200006C095ED9A95F1F700008111F5CF8091F6
:10143000E80085FF1AC00E946003811111C08091ED
:10144000E80085FD06C08091E8008E778093E80073
:10145000F2CFF80181918F018093F100219779F704
:101460008091E8008E778093E800DF91CF911F9103
:101470000F910895CF93DF93EC0148E050E0BC0159
:1014800081E00E94FF0988E0FE01ADEBB3E001902E
:101490000D928A95E1F7DF91CF91089581E08093D5
:1014A000E00080E28093D8001092C9008FE19EE4B2
:1014B0000197F1F700C0000087E090EBDC0180931A
:1014C0001C0490931D04A0931E04B0931F0488E194
:1014D0009CE00FB6F894A895809360000FBE90939F
:1014E0006000FFCF019708F40895EFE9FFE031971E
:1014F000F1F700C00000F6CFAF92BF92CF92DF921B
:10150000EF921F93CF93DF93CDB7DEB72F970FB630
:10151000F894DEBF0FBECDBF8091C70180FD0AC029
:10152000EFE9F1E0118210821282339681E0EE3A07
:10153000F807C1F774E8A72E72E0B72EDE01119606
:10154000AE01405F5F4F1A2F7B2FF5018491282F4A
:1015500030E0C901880F991F820F931F81569E4F5B
:10156000FC01C080D180E280CD92DD92ED92FFEF50
:10157000AF1ABF0AA417B50741F7219A35B13D7FCD
:1015800025B122606FB7F894812F972FFC017191DC
:10159000CF01E8E025B9000000C077FF35B9770F2B
:1015A000000000C000C000C035B900C0EA9591F746
:1015B0008417950759F76FBF8FE594E00197F1F70E
:1015C00000C000002F960FB6F894DEBF0FBECDBF4F
:1015D000DF91CF911F91EF90DF90CF90BF90AF90B0
:1015E0000895EF92FF920F931F93CF93DF938C0197
:1015F000CFE9D1E0F12CE12CF80194816091C9018F
:101600008091C801F2E0EF16F104ECF49923E9F0BF
:101610009E014091CA010E94E5052FEFE21AF20AED
:10162000239685E0E816F10439F70E947C0AF80158
:10163000848190E00196817099278483CDB7DEB7CD
:10164000E6E00C944531992319F39E0140E0E3CF85
:10165000B0E0A0E0EEE2FBE00C942331EC014C8121
:10166000042F10E09801D8010E94DD329B01AC01EB
:101670000E94A8324B015C01E0E2F0E0E01BF10BBC
:10168000A5E5B0E0AC019B010E94A8326B017C0192
:101690009F01DF010E940E319B01AC010E94B33219
:1016A0009B01AC01280D391D4A1D5B1DC701B60108
:1016B0000E94BB32F22E822F90E039E23F1598F162
:1016C00043E0249F9001112435952795122F109502
:1016D0009FE9C92E91E0D92E00E085E5E82EEF18AC
:1016E0008E2D01FD8F2D9601412F6091C9010E9421
:1016F000E5050F5F53E0C50ED11C053089F70E9448
:101700007C0A9C8181E0992319F0903219F48FEFC3
:101710008093190180911901890F8C83CDB7DEB7B1
:10172000ECE00C943F3125E530E0A901481B590B52
:10173000CA019A01220F331F280F391F37FFC4CF68
:101740002F5F3F4FC1CF0F931F93CF93DF93CFE90D
:10175000D1E0FE01118210821282339681E0EE3ACE
:10176000F807C1F710E000E080919D01082E000C01
:10177000990B081719078CF180911801082E000C9D
:10178000990B801791074CF19E014091CA0160911D
:10179000C9018091C8010E94E5050F5F1F4F239684
:1017A0000530110509F70E947C0A8091170190917C
:1017B0009D01980F90939D0120911801280F20936F
:1017C0001801121614F494301CF0819580931701BF
:1017D000DF91CF911F910F910895198218821A827B
:1017E000DCCFB0E0A0E0E7EFFBE00C942631FC0199
:1017F0008281DD24DA9480FD02C0DD24D3940FE9D8
:1018000011E0D0E0C0E025E0B22EF8011182108294
:10181000128294E0E92EF12CC12C80919C018C0D58
:101820008630C4F16B2D0E94CB30892F082E000C1E
:10183000990B8C179D0791F48091CA018E9DA00190
:101840008F9D500D112455954795559547959801B5
:101850006091C9018091C8010E94E505CD0CF1E0BD
:10186000EF1AF108D1F621960D5F1F4FC530D10553
:1018700061F60E947C0A80919C0191E0D91210C00F
:1018800081110CC084E080939C01CDB7DEB7E9E004
:101890000C94423187FFCACF8B5FC8CF8150F3CF02
:1018A00090E00196BE010E94ED30EDCF9091C7010E
:1018B00090FF0CC0EFE9F1E08183608342833396AF
:1018C00091E0EE3AF907C1F70E947C0A0895A3E07F
:1018D000B0E0EDE6FCE00C942B318C0180919E0190
:1018E00081110AC09E012F5F3F4F4FEF6FEF0E94A3
:1018F000E5058A8180939E01F8016481613069F079
:1019000080919E0140E0662361F040E0623011F476
:1019100040919E0180E060E004C060919E0140E043
:1019200080E00E94560CF801848190E0019663E00B
:1019300070E00E94ED3084832396E4E00C944731FC
:10194000A3E0B0E0E6EAFCE00C942B318C01DC0172
:101950001496EC91F0E0E757FD4F44918091C70158
:1019600080FF0EC09E012F5F3F4F6091C9018091A3
:10197000C8010E94E5054B8169818A810E94560C4D
:10198000F80184818F5F84832396E4E00C944731CF
:10199000CF93DF93C5E0D1E060E0CE010E944D32ED
:1019A0002196C11584E0D807B9F7DF91CF9108954A
:1019B0001F93CF93DF93122F8430B8F4611115C0B9
:1019C000433098F4C42FD0E0CC0FDD1F96E0899F00
:1019D000C00DD11D1124632FCE0189960E944D3276
:1019E000612FCE018A960E944D32DF91CF911F91D7
:1019F0000895CF93C82F6FEF811164E485E290E0E2
:101A00000E944D326FEFC11167EA86E290E00E94BA
:101A10004D326FEFC11169EF87E290E00E944D32C5
:101A2000CF9108959B01883070F49AE0899FB001AE
:101A300011246B597F4F4AE050E0C9010E941932CE
:101A400090E080E008958FEF9FEF0895AAE0B0E066
:101A5000ECE2FDE00C942D319C0137552F3F310510
:101A600009F068F4BE016F5F7F4F0E94120D892B51
:101A700031F489859A852A96E2E00C944931809167
:101A8000EE029091EF02F7CF0F931F93CF93DF9366
:101A9000843008F561111FC04330E8F4042F10E0D2
:101AA000000F111F26E0829F000D111D1124C80197
:101AB00089960E942932C82FD0E0DC2FCC27C8019C
:101AC0008A960E9429329E01282BC901DF91CF916D
:101AD0001F910F91089590E080E0F8CF462F20915C
:101AE000920130919301232B99F4703F39F4603FB8
:101AF00079F48091CF019091D0010895711108C0BF
:101B0000633030F4843020F460E00E94440D089586
:101B100090E080E00895CF92DF92FF920F931F93A1
:101B2000CF93DF936C0100917D0180917601082BAA
:101B3000C3E0D0E010E0FC2EC8010C2E02C0959549
:101B400087950A94E2F780FD0CC02197A0F7F12C4D
:101B50008F2DDF91CF911F910F91FF90DF90CF904C
:101B60000895B6018C2F0E946E0D0E948507019783
:101B700061F3EECFCF93DF93EC010E948B0DBE019A
:101B80000E946E0D0E948507DF91CF910895FC01A0
:101B90008481882371F087819085009729F00E94C5
:101BA00085070E94B3090895808191810E94BA0D32
:101BB000F8CF80E00895A6E0B0E0E1EEFDE00C94FF
:101BC0002C3149835A8349815A819923A1F02223D8
:101BD00091F0CA010E948B0D182F682F89819A817C
:101BE0000E94210969817A81812F0E946E0D2696BB
:101BF000E3E00C944831CA010E940009182FF2CF8B
:101C0000FC01262F87819085009741F44081518106
:101C100062817381848195810E94DB0D08950F9309
:101C20001F93CF93DF9306ED12E0C1E4D0E0CE0125
:101C30000E942932F80161918F01681719F0CE01D5
:101C40000E944D322196C536D10589F7DF91CF919B
:101C50001F910F9108950F931F93CF93DF9306ED7C
:101C600012E0C1E4D0E0CE010E942932F801819354
:101C70008F012196C536D105B1F7C3E9D3E0FE0146
:101C800085919491009711F0FC0109952C96F4E050
:101C9000C332DF07A1F7DF91CF911F910F91089514
:101CA00085E290E00E942932843489F486E290E053
:101CB0000E942932873A59F487E290E00E94293243
:101CC00091E0893F09F090E0892F8170089580E0CC
:101CD000FCCF9091B40292FB222720F9281779F0CB
:101CE00080FB92F99093B4026091B3027091B402B8
:101CF00084E090E00E946B3282E00E9476090895B1
:101D0000DA019C012E5F3F4FF90145915491F90191
:101D100025913491A217B30758F0FC0134968591B0
:101D200094910E9409320E940F0E90E080E0089585
:101D30008FEF9FEF0895DB01FC01329625913491DE
:101D40004217530758F0FC01349665917491A9012C
:101D5000CD010E94093290E080E008958FEF9FEF5F
:101D60000895AAE0B0E0E7EBFEE00C942731E3E64B
:101D7000F2E080E5DF011D928A95E9F7E1E0F3E00A
:101D800088E3DF011D928A95E9F783E6C82E82E099
:101D9000D82E7F0105EB10E0F701D182C0824AE026
:101DA00050E0B801CE0101960E94193288E0FE0190
:101DB0003196D60101900D928A95E1F789859A8531
:101DC000D70113969C938E931297BAE0CB0ED11C39
:101DD000E7E0EE0EF11C065F1F4F0530F1E01F0734
:101DE000D9F62A96E8E00C944331B0E0A0E0EBEF9E
:101DF000FEE00C941F31FC016280448081E084830A
:101E0000E9E8F2E07490E8E0F3E0E4910091CA01BF
:101E10000695015810E0000F111F012F1127CEEA7F
:101E2000D1E02FE9C22E21E0D22E37EC832E31E013
:101E3000932EAA24AA94B12C55245A94E719EE2E75
:101E4000F12C82E0861530F08091C8018883809162
:101E5000C9018983411016C01B821A8296014A81EA
:101E6000698188810E94E505259683E0C80ED11C12
:101E70008C169D0631F70E947C0ACDB7DEB7E0E1F3
:101E80000C943B318B818823E9F081508B83859DB5
:101E9000C00111246C8170E00E94D930FB01FF2742
:101EA000E757FD4F8491E82FE719E59DC001112404
:101EB000B7010E94D9308091CA01689FB0011124F6
:101EC0007A83CCCF0E94D631B5010E94ED308017C5
:101ED000910724F682E0861588F40E94D631B50178
:101EE0000E94ED3088830E94D6312091C901269549
:101EF000622F70E00E94ED30280F29831A828091B2
:101F0000CA01893C20F088EC8C838B83A7CF843175
:101F1000D8F784E1F9CF6091C701669570E04BE096
:101F200050E08CE091E00E94EF31892B19F481E0C0
:101F300080939B010E94B00490939501809394013B
:101F40000895B0E0A0E0E7EAFFE00C9423314901F6
:101F50005A016B017C010E94D6058401A4016A2DFF
:101F60007B2D88E090E00E945F3294014A2D5B2D2A
:101F7000B601C70100E20E946F31622F84E290E057
:101F80000E944D32CDB7DEB7ECE00C943F31A3E0B8
:101F9000B0E0EDECFFE00C942031E82E762EF42E2C
:101FA000622E8091C70180FF2EC0E82FE695AE2FEC
:101FB000B0E0A45DBE4F9C9190939A018E7F8230D9
:101FC00031F59E012F5F3F4F8E2D0E94E5054B811D
:101FD00069818A810E94560CE092C8017092C90101
:101FE000F092CA01662079F02091C7016091CB017F
:101FF0007091CC013E2D472D5F2D8091CD019091A8
:10200000CE010E94A10F2396EFE00C943C31923058
:1020100019F4F090CA01E0CF9031F1F6E0518E2F23
:102020008170582EE695F0E0E158FD4FE4910E2FB7
:1020300010E08FE9C82E81E0D82EB12CA12C95E0BC
:10204000892E912CC501B4010E94D9308E2D5110DA
:1020500013C0860F96014F2D672D0E94E505A00E37
:10206000B11E83E0C80ED11C8EEAC81681E0D806E6
:1020700049F70E947C0AB0CF861BECCFE7ECF1E079
:10208000438121E1421B08F440E021E0628181812B
:102090000E94C70F0895E7ECF1E0438121E1420F70
:1020A00008F44FEF21E0628181810E94C70F0895FB
:1020B000E7ECF1E0628121E1621B08F460E021E0DD
:1020C000438181810E94C70F0895E7ECF1E06281AE
:1020D00021E1620F08F46FEF21E0438181810E94CA
:1020E000C70F0895E7ECF1E0818121E0438162812F
:1020F00088500E94C70F0895E7ECF1E0818121E04C
:1021000043816281885F0E94C70F08958091CB014F
:10211000882319F081508093CB012091C701309121
:10212000C8014091C9015091CA016091CB017091E1
:10213000CC018091CD019091CE010E94A10F089514
:102140008091CB01833018F48F5F8093CB01209175
:10215000C7013091C8014091C9015091CA016091F5
:10216000CB017091CC018091CD019091CE010E9464
:10217000A10F08959091C70190FF34C09170811113
:1021800032C092609093C701662391F02091C701FD
:102190003091C8014091C9015091CA016091CB01B1
:1021A0007091CC018091CD019091CE010E94A10F40
:1021B0006091C701669570E04BE050E08CE091E0E3
:1021C0000E94EF31892BB1F010929B0181E0809346
:1021D000970120E04091CA016091C9018091C80136
:1021E0000E94C70F0895823210F09264CBCF880FFF
:1021F000982BC8CF0E948B0FE9CF8091C70186959D
:10220000815009F481E261E00E94BA100895809142
:10221000C70186958F5F823208F081E061E00E94FD
:10222000BA1008959091C70190FF08C0969598172D
:1022300028F0961718F40E940711089561E00E9493
:10224000BA100895E7ECF1E083E0808311828FEF0C
:10225000828383831482758123E030E04FEF5FEF48
:1022600060E0868197810E94A10F089590E080E050
:102270000E943732863E9E4F19F40E94500E0895F8
:1022800080E00895B0E0A0E0E8E4F1E10C942731AB
:1022900089E2C82E81E0D82E0CE211E0C0E0D1E046
:1022A000EE24E394F12CF60181916F018F3F21F12F
:1022B000F894E82FE295EF70F0E021A18F70A7016C
:1022C00002C0440F551F8A95E2F7CA01922F982B3E
:1022D00091A392A18095892382A3789400C04C9900
:1022E00032C0CD2BF601319780818F3F11F00E94D3
:1022F0007D0650EA5A95F1F7DD0F0C151D0599F68C
:1023000080917C018C1719F1C0937C0181E080934E
:102310007B010E94B00490937A01809379018091AF
:10232000790190917A010E94A1040597A0F0809113
:102330007C01909191019817A1F08093910181E027
:1023400010927B0109C08D2F8095C823CBCF80913F
:102350007B018111E4CF80E0CDB7DEB7E8E00C94DB
:10236000433180E0EDCF8091B50290911B04892B21
:102370008093500180917501882309F18091D802E2
:102380009091D902892B29F00E94D20881110E94D4
:1023900083088091500190917501892B80935001A1
:1023A00020E082E591E0FC013191CF0131112F5FF6
:1023B000F1E088359F07B9F721110E94830848E0B2
:1023C00050E06BE671E080E591E00E94FC31892BE2
:1023D000A9F088E0E0E5F1E0ABE6B1E001900D9214
:1023E0008A95E1F7E091B303F091B403309731F0AF
:1023F0000280F381E02D80E591E009950895CF9367
:10240000DF93EC014A855B856E857F850E94E3043E
:102410008B810E94B7088C810E94BE080E94B31174
:1024200086E0FE0111928A95E9F7DF91CF91089538
:10243000CF93DF93EC018D8181FD14C082608D8389
:1024400080911B049B81892B80931B048C810E94AB
:10245000C5080E94B311488559856E857F85CE01D8
:102460000E94E3041092B2031092B1038D8180FDAB
:1024700003C0CE010E94FF11DF91CF91089580919A
:102480001C01877F80931C0182E00E94B708809125
:102490001C0184FF06C08F7E80931C0182E00E9495
:1024A000C50880911C0185FF06C08F7D80931C01AB
:1024B00080E20E94C5080E94B31108951092B502EF
:1024C000E2E5F1E086E0DF011D928A95E9F71092DE
:1024D0001B040E94B3110895AAE2B0E0E2E7F2E122
:1024E0000C942C3189EC93E02091F100FC012193B4
:1024F000CF01F3E0813D9F07B9F78091CA03833094
:1025000009F470C0B8F4813009F447C0823009F48E
:10251000B1C08091E80083FF91C28091C90390917E
:10252000CA039A3008F08AC2E92FF0E0E251FD4C6C
:102530000C9401318A3009F48CC08B3009F46FC0DF
:10254000893039F78091C903813219F78091CD0321
:102550009091CE03892BE9F68091E800877F8093E4
:10256000E8008091E80082FF38C09091F3008091EC
:10257000F200029731F48091F100813011F0863041
:1025800021F48091F1008093BC038091E8008B7767
:102590008093E8000E949103BCCF8091C903813AE7
:1025A00009F0B7CF8091E800877F8093E8008091A1
:1025B000CD039091CE03892B61F468E08DEB93E01D
:1025C00070E00E943D048091E8008B778093E800E2
:1025D000A0CF60E090E080E0F3CF8091C70381114D
:1025E000C0CF97CF8091C903813A09F092CF8091F3
:1025F000CD039091CE03892B09F08BCF8091E80019
:10260000877F8093E8008091E80080FFFCCF809175
:1026100020018093F1008091E8008E77B9CF8091FE
:10262000C903813209F075CF8091CD039091CE031B
:10263000892B09F06ECF8091E800877F8093E800B6
:102640000E9491038091CB03809320010E945E122F
:1026500060CF8091C903813209F05BCF8091E8009F
:10266000877F8093E8000E9491038091CC03809340
:10267000BB034FCF8091C903813A09F04ACF8091C3
:10268000E800877F8093E8008091E80080FFFCCF1E
:102690008091BB03BECF803899F0823809F0CEC15B
:1026A0008091CD038F70873008F0C8C18093E90016
:1026B0008091EB0085FB882780F91092E90006C025
:1026C0008091C5039091C603911182609091E800BA
:1026D000977F9093E8008093F1001092F100809131
:1026E000E8008E77A7C1882309F495C1823009F0EC
:1026F000A5C18091CB03811198C18091CD038F70CA
:102700002FEF280F263008F099C18093E90020911F
:10271000EB0020FF8AC1933031F48091EB0080629E
:102720008093EB0082C19091EB0090619093EB005D
:1027300021E030E001C0220F8A95EAF72093EA00F9
:102740001092EA008091EB008860EACF811176C197
:102750001091CB031F778091E3008078812B8093C9
:10276000E3008091E800877F8093E8000E94910356
:102770008091E80080FFFCCF8091E3008068809327
:10278000E30082E0111183E08093C70357C18058B2
:10279000823008F053C12091CB033091CC032C3D03
:1027A00083E03807A1F583E08A838AE289834FB703
:1027B000F894DE01139620E03EE051E2E32FF0E0D2
:1027C00050935700E49120FF03C0E295EF703F5F04
:1027D000EF708E2F90E0EA30C0F0C7968D939D93F6
:1027E0002F5F243159F74FBF8091E800877F809396
:1027F000E8006AE270E0CE0101960E943D048091FB
:10280000E8008B778093E80019C1C096E7CF40912C
:10281000CD035091CE03832F99278330910501F189
:1028200060F48130910509F47EC0029709F006C179
:1028300082E490E0E5E8F4E035C08132910509F4E6
:1028400066C08232910509F0F9C04115510509F4BD
:1028500074C04130510509F0F1C0EFE1F4E022C04D
:1028600033272130310509F442C02115310581F0AB
:102870002230310509F443C02330310509F0DEC0B0
:10288000E9EDF4E0E4918E2F90E0E9EDF4E007C08B
:10289000EBE1F5E0E4918E2F90E0EBE1F5E00097BD
:1028A00009F4CCC02091E800277F2093E800209114
:1028B000CF033091D0038217930708F49C0140E0C6
:1028C0002115310509F03EC041113CC08091E8005E
:1028D00082FD95CF8091C703882309F490CF85307E
:1028E00009F48DCF8091E80083FFF0CF88CFE5E039
:1028F000F5E0E4918E2F90E0E5E0F5E0D0CFE7EF52
:10290000F4E0E4918E2F90E0E7EFF4E0C8CF4115BA
:10291000510571F04130510509F090C089E090E017
:10292000E0EBF4E0BFCF82E190E0E7ECF4E0BACF77
:1029300089E090E0E7E9F4E0B5CF84E490E0E1E4F9
:10294000F4E0B0CF8091C703882309F458CF8530D5
:1029500009F455CF8091E80083FD51CF8091E800C4
:1029600082FDB4CF8091E80080FFAACF9091F30060
:102970008091F2002115310519F08830910550F051
:1029800041E0089709F040E08091E8008E7780935D
:10299000E80096CF44914093F100319621503109DF
:1029A0000196E8CF803809F049C08091E800877F20
:1029B0008093E8008091C8038093F10090CE81114C
:1029C0003DC01091CB031230C8F58091E800877F9D
:1029D0008093E8001093C8030E949103112311F023
:1029E00084E005C08091E30087FDFACF81E0809309
:1029F000C70342E061EC81E00E94B00342E261EC77
:102A000082E00E94B00342E260EC83E00E94B003E7
:102A10008091C70313C08091CB03813079F481E0AA
:102A2000933009F080E08093C6031092E900809112
:102A3000E800877F8093E8000E9491038091E8007E
:102A400083FF0AC08091E800877F8093E80080912F
:102A5000EB0080628093EB00AA96E3E00C9448318F
:102A6000E6EDF2E0128E138E8FEA90E09183808380
:102A700085E0848F28E833E13383228322E330E04A
:102A8000378B268B28EC30E0318F208F158E178EF8
:102A9000168E20E530E031A320A382A30E940F0E02
:102AA0000E945E121092B4021092B302E4EBF2E0C4
:102AB0008081846080836091B3027091B40284E06D
:102AC00090E00E946B320E942B0E0895A4E1B0E0CA
:102AD000ECE6F5E10C942731E0901E01F0901F0127
:102AE00081E090E090931F0180931E01D12C10E0B3
:102AF00000E0402F21E030E0D11008C0F801EE0FD7
:102B0000FF1FE75EFB4F859194919C0160E08D2D46
:102B10000E94D80C0F5F1F4F0330110551F7D3945B
:102B200084E0D812E4CF0E9430151A8219821C82E8
:102B30001B821E821D8218861F8288EC90E09A8775
:102B4000898705E610E04AE050E0B801CE01019621
:102B50000E947132065F1F4F053B1105A1F76E0100
:102B6000EBE0CE0ED11C8AE0F60111928A95E9F7CE
:102B70004AE050E0B801C6010E947132065F1F4F63
:102B80000530F1E01F07A1F7F0921F01E0921E014E
:102B90006496E8E00C94433180E00E94F90C60E018
:102BA00088E290E00E944D320E9466150E94C80C97
:102BB00081E00E94F90C0895CF92DF92EF92FF928C
:102BC0008FEF9FEF4430510508F46CC0FB01C080CB
:102BD000D180E280F3800E945E128091B302C0FA3D
:102BE00080F9B701A601769567955795479540FB03
:102BF00081F9B701A60122E076956795579547952B
:102C00002A95D1F740FB82F9B701A60133E076950A
:102C10006795579547953A95D1F740FB83F9B701EA
:102C2000A601E4E07695679557954795EA95D1F723
:102C300040FB84F9B701A601F5E0769567955795B5
:102C40004795FA95D1F740FB85F9B701A601A6E0B3
:102C50007695679557954795AA95D1F740FB86F9E4
:102C6000B701A601B7E07695679557954795BA9550
:102C7000D1F740FB87F98093B3028091B402D0FA78
:102C800080F9D1FACC24C0F8C0FA81F98093B4025B
:102C90006091B3027091B40284E090E00E946B32C4
:102CA00090E080E0FF90EF90DF90CF9008950E9439
:102CB0005E122FEF84E39CE0215080409040E1F7CA
:102CC00000C0000088E19CE00FB6F894A8958093BE
:102CD00060000FBE90936000FFCF882321F00E9418
:102CE000B7080E94B3110895882339F090911B040E
:102CF000982B90931B040E94B3110895882321F010
:102D00000E94BE080E94B3110895882321F00E94FA
:102D1000C5080E94B3110895882391F09CEF980F85
:102D2000913A78F4E2E5F1E09191891303C0DF0173
:102D300011971C9291E0E835F907B1F70E94B311A1
:102D4000089590E2980F9830D8F7877091E001C00D
:102D5000990F8A95EAF7892F0E94BE08EFCFCF938B
:102D6000DF93EC010E948C16CE010E94CE099E01D9
:102D7000205E31092830310510F0CD2B29F40E9456
:102D80007E16DF91CF9108950E946D16FACFCF93F2
:102D9000C82F8823A9F08CEF8C0F813A00F5E2E56B
:102DA000F1E0DF018D91C81769F081E0A835B8071F
:102DB000C9F76C2F80E591E00E94BC040E94B3111A
:102DC000CF9108958191C81303C0DF0111971C9220
:102DD00081E0E835F807B1F70E94B311EACF80E24D
:102DE0008C0F883068F7C77081E001C0880FCA95E2
:102DF000EAF70E94C508E2CF1F93CF93DF93182F05
:102E0000C091F602D091F702893321F0C091F4020B
:102E1000D091F502812F0E94C716209739F4812F97
:102E20000E948C16DF91CF911F9108958FE99FE04A
:102E30000197F1F700C000002197EFCFB0E0A0E0CC
:102E4000E4E2F7E10C942531EC018AE0A82E288118
:102E5000222309F48FC02130C9F599818A819130EC
:102E600021F422960E94FC1605C0923029F4229685
:102E70000E94C7162196EBCF933021F422960E9430
:102E80008C16F8CF943011F02196F4CF229630E0D2
:102E900020E0AE014F5F5F4F8053990B8A30910560
:102EA00050F02150310930F38FE99FE00197F1F79D
:102EB00000C00000F6CFA29EB001A39E700D1124A9
:102EC0009C01260F371F8981EA01E3CFE22FF0E052
:102ED000E15BFA4FB490822F86958695869590E0B7
:102EE000FC01E15CFA4FE4902770F12C022E02C045
:102EF000F594E7940A94E2F731E0E322FF24FC0121
:102F0000E15DFA4FC490D12C022E02C0D594C79433
:102F10000A94E2F731E0C322DD24FC01E15EFA4FBE
:102F2000049110E002C0159507952A95E2F701700B
:102F30001127E114F10419F081EE0E94C716C114A3
:102F4000D10419F086EE0E94C7168B2D0E94FC1644
:102F5000C114D10419F086EE0E948C16E114F1041C
:102F600019F081EE0E948C160115110509F482CF2B
:102F70008CE278CFCDB7DEB7EAE00C944131B0E017
:102F8000A0E0E5ECF7E10C9425317C015B01C42F56
:102F9000D22FFC0185818823A9F04093B0030E94C1
:102FA000B0049093AF038093AE03C77081E001C07B
:102FB000880FCA95EAF70E948516CDB7DEB7EAE01A
:102FC0000C9441311091B003141338C08091AE03BA
:102FD0009091AF030E94A1046C01B701C5010E944A
:102FE000260DC816D90650F5C0E2CD0F1D17C1F049
:102FF00080E2810F883048F4177081E0012E01C013
:10300000880F0A94EAF70E947E16C83048F481E0DF
:103010009D2F977001C0880F9A95EAF70E94851638
:10302000802F0E94FC16C83040F6D77081E001C0A6
:10303000880FDA95EAF70E947E16BFCFC77081E04D
:1030400001C0880FCA95EAF7F6CFCF93DF93EC0162
:103050000E94CE099E01205E31092830310510F012
:10306000209741F40E9485168C2F0E94C716DF918D
:10307000CF9108950E947416F7CF662329F020910E
:103080001B04226020931B049C0130522115304305
:1030900008F499270E9425180895B0E0A0E0E3E520
:1030A000F8E10C9427316C018B01E42E80911C0116
:1030B00082FF87C0C091FC02D091FD02CC15DD05D6
:1030C00021F0C114D10409F07CC080911C018B7FD8
:1030D00080931C0181FD6EC08091FA029091FB02E9
:1030E000A801481B590B81E020911A0130911B0166
:1030F0004217530708F480E08170F82E80911C017C
:10310000F0FA81F980931C01FE0183E0F695E795C2
:103110008A95E1F7EE71FF27EA54FD4F2081318156
:10312000AE014F70552781E090E002C0880F991FD3
:103130004A95E2F7FF2009F43FC0822B932B91833D
:1031400080838091B50281FF08C080911C0180615D
:1031500080931C0182E00E94BE088091B50285FF29
:1031600008C080911C01806280931C0180E20E9453
:10317000BE086F2DCE010E943D18EE2031F08091E7
:10318000F10285FF02C086FF30C08091F402909169
:10319000F5020E94720A8091FC029091FD029C014E
:1031A00030522115304308F499270E94AF160E942F
:1031B0003F1217C081E0A0CF809590958223932382
:1031C000BECFC601905281159043A0F4C601992745
:1031D0000E94AF168091FC029091FD028C159D0516
:1031E00031F31093FB020093FA02CDB7DEB7E8E0AB
:1031F0000C944331C601ECCFA4E0B0E0E2E0F9E189
:103200000C9423317C01DC0114968C91882309F401
:10321000F8C261E0C7010E94000E8C01F7018581B0
:10322000882319F18091B1039091B2030097E9F0DE
:1032300008171907D1F09927E4E0880F991FEA953C
:10324000E1F7FC01E851FE4F2081246020838D517D
:103250009E4FDC010D931C930E94181210921B04C8
:1032600061E0C7010E94000E8C01F701858188236F
:1032700009F4B1C0980137572038310508F0ABC0C8
:10328000D02EFFE0F01708F4ACC28FEF93E00E945D
:1032900029328111A6C205E011E0D11036C0198291
:1032A0001A821B821C8299249A9468013FEFC31AE8
:1032B000D30AC8010E94293289831A82882309F41B
:1032C00090C2813009F081C0580142E0A40EB11CC7
:1032D000C6010E942932C82E8A83882309F481C23C
:1032E000C5010E942932D82E8FEF8C0D8330D8F47F
:1032F000580153E0A50EB11CDB82DD2021F0CE0188
:1033000001960E941E178501D0CF011524E01207F7
:1033100009F467C2C8010E942932811101C0DA9400
:103320000F5F1F4FBACF8BEF8C0D833030F5C80184
:103330000396DB825C01DD2031F35801A4E0AA0E84
:10334000B11C0E9429328C838823E9F28B819C81F5
:103350008130BFEF9B0710F0982F8827E6E0CE164C
:1033600031F0F7E0CF1631F00E945227CCCF0E9407
:103370002D27C9CF0E94B426C6CF24E0C212C3CFE6
:10338000580134E0A30EB11CC80103960E942932F3
:10339000DD2009F426C2882309F423C28150990B49
:1033A000989E9001999E300D11244D2D4150550B42
:1033B000CA01820F931F019708F4A5CFAFE9BFE0C0
:1033C0001197F1F700C00000F6CFCE0101960E94E0
:1033D0001E17560198CF6801E7E5DE1A811179C002
:1033E000FFEFCF16D10411F008F079C069ED71E05C
:1033F0008C2D0E94120D892B29F5C60164E0880FDF
:10340000991F6A95E1F7FC01ED51FE4F22812130B1
:1034100009F04CC02091D9013091DA01232B91F0B1
:103420002091DB013091DC01232B61F02091DD0143
:103430003091DE014091DF015091E001242B352BCA
:10344000232BE1F1F801FF2784E0EE0FFF1F8A959F
:10345000E1F79F012D513E4F6901D70115968C91DF
:10346000E851FE4F908180FB90F9908381118CC0D0
:10347000D6011C964D915C911D971E966D917C9185
:10348000C6010E94E304F601858181FF28C0C601C0
:103490000E94FF118091B1039091B20308171907A0
:1034A000F1F41092B2031092B10319C0223051F618
:1034B0002091DD013091DE01232B21F2FC01E85146
:1034C000FE4F20812E7F20838D519E4F0E94181227
:1034D000B9CF2FEFC216D10409F008F4B3CF809111
:1034E000F10280FFCEC00E94B0046C01D701159696
:1034F0008C91882309F48AC080911C0182FF08C046
:1035000025E831E040E0B60190E080E00E944D18EF
:103510000431BCE71B0709F475C00531ECE71E0751
:1035200009F465C00331FCE71F0729F480911C01F1
:10353000816080931C01C80190528115904308F06E
:1035400073C01092FD021092FC02F7013581332303
:1035500009F427C61092B003C8019057839708F06A
:1035600061C284E090E00E9437329093B40280936D
:10357000B302F801E150F047E232F10508F095C1DD
:10358000E850FD4C0C9401310E94B00490938401EA
:1035900080938301D60112968C9112978F5F1296B9
:1035A0008C93129780911B049091B502892B1396EE
:1035B0008C9313978091750114968C93149716969B
:1035C0004D915C9117971E966D917C91C6010E945A
:1035D000E304F601858181FF07C090E080E09093CD
:1035E000B1038093B2037BCF902F812FF8CF9091BE
:1035F0001C01892F8E7F90FF816080931C010E94A7
:103600003F1299CF80911C018E7FF7CF80911C01D2
:103610008F7E013E110531F0053E1105E9F48091E0
:103620001C018F7D80931C0180911C0180FF29C0AB
:10363000D70115968C910832110570F50E311105E0
:1036400008F07BC004301105C8F58823D1F0109232
:10365000FD021092FC0215C0C801905281159043E2
:1036600018F780911C0182FF0CC08091F30281FD4C
:1036700008C025E831E040E0B60190E080E00E941B
:103680004D18F801E851FC47E730F10508F05DCF2F
:10369000E65EFC4C0C9401310933110558F40D32EF
:1036A000110518F40B32110581F69091F10292FD8B
:1036B000CCCF08C004361105C1F3C7CF9091F102F9
:1036C00094FDC3CF882309F4BCC08091750190910B
:1036D000B502892B8D7FB1F11092FD021092FC0290
:1036E0008091F10281FD2EC0F80153E0F695E79537
:1036F0005A95E1F7EE71FF27EA54FD4F98012F70BC
:10370000332781E090E002C0880F991F2A95E2F7E5
:1037100080959095208131818223932391838083AA
:1037200060E0C8010E943D18809175018D7F0E9464
:103730008E0882E00E94760954C09091F10293FDB8
:1037400084CFC0CF89E0F701A5E8B1E001900D92E8
:103750008A95E1F710928A011092880110928701F0
:103760008091FC029091FD020817190709F04DC0E5
:103770002091F10225FF49C030911C0131FF02C0A8
:1037800026FF43C02091FA023091FB025601A21A93
:10379000B30AB7010E94260DA816B906B0F58091AC
:1037A000B50281FF08C080911C01806180931C01DB
:1037B00082E00E94BE088091B50285FF08C080911A
:1037C0001C01806280931C0180E20E94BE0860910F
:1037D0001C01669561708091FC029091FD020E942F
:1037E0003D1880916A01877061F0D70115968C9120
:1037F000882339F08091B40282FF03C082E00E94E6
:1038000076092496ECE00C943F31809175019091FB
:10381000B502982B20911C0191FB21F920931C01EA
:103820008D7F0E948E081093FD020093FC02D092BF
:10383000FB02C092FA0280911C01846080931C01FB
:1038400078CF970140E0B601C8010E944D18C9CF5A
:1038500006E221EE41EE6AE17CE7C7010E94BF1754
:10386000C0CF07E225EE45EE6BE17CE7F6CF06E23E
:1038700021EE40EE68E17CE7F0CF07E225EE44EE72
:1038800069E17CE7EACF06E221EE42EE6CE17CE7FB
:10389000E4CF07E225EE46EE6DE17CE7DECF08E2FD
:1038A00021E045EE6EE17CE7D8CF8091B3028160E4
:1038B0008093B30295C08091B40288608093B40273
:1038C0008FC08091B3028260F3CF8091B302846095
:1038D000EFCF8091B3028860EBCF8091B40281601A
:1038E000EDCF8091B4028260E9CF8091B302806114
:1038F000DFCF8091B3028062DBCF8091B30280641E
:10390000D7CF0E945E128091B3028068D1CF8091A0
:10391000B3028C60CDCF8091B4028360CFCF809111
:10392000B3028E7FC5CF8091B402877FC7CF8091CD
:10393000B3028D7FBDCF8091B3028B7FB9CF8091D1
:10394000B302877FB5CF8091B4028E7FB7CF8091CD
:10395000B4028D7FB3CF8091B3028F7EA9CF8091C7
:10396000B3028F7DA5CF8091B3028F7BA1CF0E9440
:103970005E128091B3028F779BCF8091B302837FD9
:1039800097CF8091B4028C7F99CF8091B30282FB54
:10399000992790F921E0922790FB82F990FB83F917
:1039A00087CF8091B402982F909591708E7F892B4C
:1039B00090FB81F983CF9091B302892F8F7B96FF83
:1039C000806476CF0E945E129091B302892F97FB9C
:1039D00087F980586DCF61E08EE090E00E944D3213
:1039E0006091B3027091B40284E090E00E946B3267
:1039F0000E945E12F6CE60E0EFCF9091B302892F65
:103A00008F7E94FF806154CF9091B302892F8E7F77
:103A100090FF81604DCF9091B402892F877F93FFF3
:103A200088604CCF0631FCE71F0709F0AEC38091D8
:103A3000B502982F9A7A2091F00220FF04C0482FF7
:103A4000447409F090E021FF04C0482F417109F04F
:103A500090E022FF04C0482F487809F090E023FF4F
:103A600003C0827209F090E0332381F081E091116C
:103A700001C080E08093580169E2911165E380E51F
:103A800091E00E94BC040E94B311ABCE809158011A
:103A900081110FC089E2E2E5F1E028E531E0919182
:103AA000891303C0DF0111971C922E173F07B9F746
:103AB000EACF85E3F0CF8091C70180FF19C0282F9E
:103AC0002E7F2093C7013091C8014091C9015091C8
:103AD000CA016091CB017091CC018091CD01909190
:103AE000CE010E94A10F10929B010E947C0A79CE08
:103AF00081608093C70161E086950E94BA1071CE03
:103B00004DEF50E167E071E10E94D0056ACE47E0D9
:103B100051E16DEF70E1F8CF42E750E16CE770E101
:103B2000F3CF4CE750E162E770E1EECF48E550E1BA
:103B300065E670E1E9CF45E650E168E570E1E4CF84
:103B40004EE350E16BE470E1DFCF4BE450E16EE314
:103B500070E1DACF46E850E160EA70E1D5CF40EAA3
:103B600050E166E870E1D0CF61E081E0C6CF65E06A
:103B700082E00E94121135CE6BE086E0FACF6EE053
:103B80008CE0F7CF61E08FE0B8CF69E180E1F1CF61
:103B900061E08AE1B2CF61E28CE1EBCF07372CE73D
:103BA000120709F44FC008373CE7130709F44EC069
:103BB000F70187819085009709F487C00E948507E7
:103BC000182F092FF701B580C680C2944FE0C42298
:103BD00080916A018770F1F0AB2CBB20E1F0892F56
:103BE000807F803451F080E2810F883098F0C110DE
:103BF00004C0892F807E803269F08091B40282FFF8
:103C000009C082E00E94760980916A018770AA2427
:103C1000A3948111A12C902E92943FE09322FBE07B
:103C2000F91508F4E2C0E92DF0E0EF5DFC4C0C94CE
:103C3000013181E00E948D0943E062E081E00E9451
:103C40004909CFCD81E00E946909F6CF82E0FBCF20
:103C500003304CE7140731F150F401158CE71807D5
:103C6000A1F001301C4709F0A3CF0E9457160B3575
:103C7000ACE71A0741F10C35BCE71B07D1F00A3558
:103C80001C4709F095CF81E01BC00E945E12FFEF38
:103C900024E33CE0F15020403040E1F700C0000058
:103CA0000E944E0A6FEF7FEF90E080E00E946B323F
:103CB000DCCF8091B40282FB882780F991E08927CC
:103CC0000E94690E75CF80E0FBCF85810081118154
:103CD000882369F0C8010E948B0DD82E682FC80177
:103CE0000E942109B8018D2D0E946E0D67CFC80179
:103CF0000E940009D82EF6CF202F2F70D22E802FB1
:103D0000807F19F0D29420EFD222BB20A9F0DD20D1
:103D100059F080E2810F883010F0111107C08D2D0D
:103D20000E94C5080E94B311812F5DC080911B04C1
:103D3000D82AD0921B04F6CF812F0E948C16DD204A
:103D400009F453C080E2810F883010F0111104C0D3
:103D50008D2D0E94BE0803C08D2D0E94B7080E94C1
:103D6000B31143C0302F3F70D32E802F807F80321D
:103D700019F0D29490EFD922112339F1113009F4BE
:103D8000B6C0BB2009F4C2C0CC2009F466C020E054
:103D9000D7014C9111965C91119712966C911297E4
:103DA00013967C91139714968C91149715969C9169
:103DB0000E94DB0D8091F30281FDB6CFF701868171
:103DC00080FFB2CF8F70868348C08091B40282FD9D
:103DD00040C0BB20C1F1DD2029F08D2D0E94C50817
:103DE0000E94B31180E00E94C716A92DA850BB0BFA
:103DF000149710F40E94D604812F902F0E94B309CB
:103E00008111A3C110925A0110925901AA20B1F058
:103E100080916A0180FD12C0D70115961C9286958B
:103E2000869586950E948D09C7010E94FC18809195
:103E30006A018695869586950E94690960E0C701AA
:103E40000E94000EDECC80E00E948C16DD2069F21C
:103E50007FCFBB2091F1C11004C08D2D0E9485162B
:103E6000C4CF41E0C41211C0809075018D2D88210E
:103E7000D81609F4BACF0E94B004909374018093CD
:103E80007301D828D0927501B0CF8091F2028230B0
:103E900008F4ABCFC812A9CF8D2D0E9485168D2DA9
:103EA0000E94A208809167019D2D9823D91609F4DC
:103EB0009CCFD82AD092670198CFC1100AC08D2D0F
:103EC0000E947E168D2D0E94A2088D2D0E94EC0866
:103ED0008CCF8091F202823008F487CF51E0C51276
:103EE00084CF8091B5028D2109F47FCFE8CF8091F6
:103EF000F802BB2021F08C1508F477CFAECFC8169E
:103F000008F073CF8D2D0E947E166FCFCC20D1F399
:103F10008091F6029091F702193321F08091F4021A
:103F20009091F5020E94720A812F0E948C165DCF3B
:103F3000802F837091F5B11058CF412F429546954F
:103F40004770440F440F812F8F70042E01C0880FDB
:103F50000A94EAF7212F207114FF07C02FE030E008
:103F600001C0220F4A95EAF72095302F36953695F5
:103F70003370323069F050F440917601313029F0DD
:103F8000822B84230E94B00930CF842B822BFACF5E
:103F9000282B809176018227F5CF8695BB2011F0E2
:103FA000802F8170882309F420CF412F42954695B8
:103FB0004770440F440F812F8F70042E01C0880F6B
:103FC0000A94EAF7212F207114FF07C02FE030E098
:103FD00001C0220F4A95EAF72095302F3695369585
:103FE0003370323069F050F440917D01313029F066
:103FF000822B84230E944609F8CE842B822BFACF91
:10400000282B80917D018227F5CFF02FFF70DF2EC6
:10401000BB2029F08F2F0E948D09812F1FCF812F68
:104020000E947E168D2D0E946909DFCE123F89F114
:1040300060F4103FB9F0113F81F0BB2009F480C05B
:10404000C11072CE802F8F7128C0133F49F1143FE9
:10405000A1F78091B40282FD2FC0802F8F71BB2009
:1040600011F31BC08091F802BB2079F0C81608F04C
:10407000BCCE202F2F7181E090E001C0880F2A95DF
:10408000EAF790917D018927B5CF8C1508F4ADCE64
:10409000F0CF802F8F71B110C6CF0E948D09A5CEB1
:1040A00080E0BB2009F4A6CF81E0902F9F7101C072
:1040B000880F9A95EAF79ECF8091F202823040F104
:1040C000BB20D1F090916A019770943041F40E9426
:1040D000CB08802F8F710E946909A12C86CEC8164B
:1040E000E0F7202F2F71D22E822F0E948D0963E0DE
:1040F0008D2D0E949909F1CFC81630F00E94CB088F
:1041000064E0802F8F71F5CF81E00E947609E5CFC2
:10411000BB2059F0302F3F71D32E832F0E948D0981
:1041200063E08D2D0E94990960CE81E00E9476099E
:1041300041E04C1508F059CE82E00E94760955CE38
:10414000C110E6CE802F8F716ECFBB2019F0C11049
:1041500059CE5CCEC11056CE20E0F701408151818E
:1041600062817381848195810E94DB0D8091F302CD
:1041700083FF48CE8091590190915A01029709F02E
:1041800041CE812F0E94FC163DCE0737BCE71B07AE
:1041900009F44FCD0837ECE71E0709F059CD82E04E
:1041A00049CD0631FCE71F0709F441CC8091B502E7
:1041B0008272F801E052F847E531F10508F0EECCE3
:1041C000E35DFC4C0C940131B0E0A0E0EAEEF0E2DB
:1041D0000C94283180916401807F09F054C0809153
:1041E0006301882309F44FC0E0911A0489E0D82EB6
:1041F0008091D1038E1709F446C00E2F10E0ED9D7B
:10420000F0011124EE52FC4F8481882309F440C050
:10421000D09EE001D19ED00D1124FE01EE52FC4F44
:10422000918180915F01981333C0908180915E01EC
:1042300098132EC0858181112BC0E280F38080917C
:10424000600190916101E81AF90A60E08EE591E061
:104250000E94000E6EE571E00E94260DE816F90638
:10426000B8F4809164018F70806180936401C852BA
:10427000DC4F88818F70806188838EE591E00E9499
:10428000FC180E94F608CDB7DEB7E7E00C94443185
:10429000F8013196E770ACCFA8E1B0E0E2E5F1E2D9
:1042A0000C9420318C0186E0F801DE0153960190D8
:1042B0000D928A95E1F7D80114967C901497159683
:1042C000EC908EE5A82E81E0B82E809162018111DC
:1042D0002AC0711003C0FF24F3941CC0EE20F9F033
:1042E000C8010E94C70DF82E8823C9F089E0F801A3
:1042F000AEE5B1E001900D928A95E1F780916201FF
:10430000813031F480915E0190915F010E94BA0D7D
:104310000E94E4208F2D6896EFE00C943C31C80198
:104320000E94FC18D8CFF80150806180C280D380F1
:1043300060E08EE591E00E94000EF09063018091B4
:104340006001909161014601881A990A60E08EE54A
:1043500091E0FF2009F428C10E94000E6EE571E093
:104360000E94260D8816990608F0D1C0772009F41E
:10437000B2CF80916401382F307F20915F01D80146
:1043800011969C911197311171C029131FC0209172
:104390005E019C9129131AC04091650150916601FC
:1043A00017962D913C914217530781F4E11054C0A8
:1043B0008F708061809364018EE591E00E94FC180B
:1043C00080916401F8018683F12CA4CFE11044C0F0
:1043D000662D852D0E942203E82E882381F080918E
:1043E000F30280FFF1CF8EE591E00E94FC1889E096
:1043F000EEE5F1E0DF011D928A95E9F7E5CF5B8AF2
:104400006C8A8B899C890E94BA0D292F22952F7066
:10441000243058F49F70223088F0992399F0F801E5
:104420009681907F79F4FE2C75CF2A5F2F70223011
:1044300068F0C8010E94FC18EF2CF5CF992311F009
:10444000882389F3805E883070F3F3CF803F58F380
:10445000815F833070F7E7CF809164018160809342
:1044600064018091F30281FDAFCFBDCF291320C03D
:1044700020915E019C9129131BC0409165015091D0
:10448000660117962D913C9118974217530781F4B6
:10449000E1100EC016968C93C8010E94FC1889E0AA
:1044A000F801AEE5B1E001900D928A95E1F732CFC7
:1044B000C8010E94C70D882309F431CFEE2009F40A
:1044C0002ECF809164018032B8F020915E0130914E
:1044D0005F013B872A87DD86CC86909162019E87AB
:1044E0001F86888B80916501909166019A8B898BDC
:1044F000CE010A960E94FC1889E0F801AEE5B1E011
:1045000001900D928A95E1F70E94E420E4CE80911B
:104510006401982F907F09F466CF772009F4DBCEF1
:1045200020915F01F801918129131AC020915E0149
:104530009081291315C04091650150916601278132
:1045400030854217530761F4E1100AC08683C80121
:104550000E94FC1889E0D5011D928A95E9F7DACE10
:10456000C8010E94C70D882309F4D9CEEE2009F4B2
:10457000D6CE80916401803208F4BECF20915E01D6
:1045800030915F013A832983DC82CB829091620172
:104590009D831E828F83809165019091660199872A
:1045A0008887CE010196A6CF0E94000E6EE571E0CD
:1045B0000E94260D8816990608F04AC0772009F453
:1045C0008ACEFE2CEE2009F4AACE90915F01F8016C
:1045D000818198132FC090915E01808198132AC029
:1045E00020916501309166018781908528173907F0
:1045F00009F58091600190916101C81AD90AF8EC1F
:10460000CF16D10408F04BCF9091640190FD47CFB5
:10461000907F09F444CF80916401D80116968C9361
:104620001697903F09F438CF982F907F905F8F7046
:10463000892B30CFC8010E94C70D81115DCF8091B9
:104640006401816080936401C8010E94FC1862CEFD
:1046500089E0F50111928A95E9F75CCEA2E1B0E01C
:10466000E4E3F3E20C942B310A871B872C873D8708
:104670004E875F87688B798B8A8BCE010A960E9462
:104680004C2181110CC089E0FE013A96DE011196A1
:1046900001900D928A95E1F78E8581110BC019E08A
:1046A00080911A049091D103891331C06296E4E09D
:1046B0000C9447312091D10330E0C90101968770F5
:1046C000992740911A044817190699F099E0929F8A
:1046D000D001939FB00D1124AE52BC4FFE01319614
:1046E00001900D929A95E1F78093D1030E94F6080C
:1046F000D6CF0E945E121092D10310921A0489E064
:10470000EEE5F1E0DF011D928A95E9F7C8CF819FC0
:10471000C00111248E529C4F0E944C21882331F2FB
:1047200080911A0490E001968770992780931A046B
:10473000B7CFEF92FF920F931F93CF93DF938091A8
:104740003903882361F0E09100038DE0F82E809119
:104750003903E81748F01092390310920003CDB7DF
:10476000DEB7E6E00C944531EE24E394EE0EE092E1
:104770000003CE2FD0E0EF9DF0011124E65CFC4F4A
:1047800084818823E9F087819085892B21F48185B4
:104790009285019659F400811181228133814481EF
:1047A00055816681778180850E942E23FC9EF001D1
:1047B000FD9EF00D1124E65CFC4F148210921B0448
:1047C000EE2DC5CF1092AD031092AC0310921D01D7
:1047D0008091AB038093AA030E9417050E9499233E
:1047E0000895B0E0A0E0E7EFF3E20C941E31C09131
:1047F000AA0397E0992E01E010E02DE0322E34E07C
:10480000432E552453948091AB038C1309C00E940E
:1048100099230E941705CDB7DEB7E1E10C943A3138
:10482000D0E0FE01EE0FFF1FEE55FC4F808191811D
:10483000989ED001999EB00D1124AF5FBC4F149685
:104840002C911497211159C060903903EAE3F3E0E9
:1048500030E020E0812C5D01261508F04CC0E38497
:10486000F484D501CD90DC906FEF7FEF712C472D54
:1048700050E0DA01AA0FBB1FAC0DBD1D0D90BC911D
:10488000A02D109731F0EA16FB0609F4BA017394D3
:10489000EECF6F3F7607A9F1D80102C0AA0FBB1F68
:1048A0006A95E2F78A2AB801072C02C0660F771FC3
:1048B0000A94E2F7AB01415051098416150601F53F
:1048C000329EF001339EF00D1124E65CFC4F989E61
:1048D000D001999EB00D1124AF5FBC4F12962D915F
:1048E0003C911397308727834482108211829287EC
:1048F000818715965C920E94E9042196C37083CF4C
:1049000014822F5F3F4F3D96A7CFAEE1B0E0EBE8BA
:10491000F4E20C941D314B8B5C8B6D8B7E8B8F8BFB
:10492000988F882349F08091590190915A010196FE
:1049300090935A0180935901888D811110921B0424
:10494000188A198A1A8A86E0FE017396DE011A9681
:1049500001900D928A95E1F78091B40282FF1EC00A
:104960008091D8029091D902892BC1F00E94B004A5
:104970002091680130916901821B930B2091D8022C
:104980003091D9028217930720F080916A0182FF4B
:10499000E7C10E94D20881110E9483088E85882376
:1049A00089F061E0CE010A960E94000E6C018F85AD
:1049B00020E5C2162CE7D20689F4882329F181E08C
:1049C00080931D010A851B852C853D854E855F855D
:1049D000688979898A890E942E23CDC031E5C31662
:1049E0003CE7D30629F4882379F00E94E223EACF3A
:1049F00042E5C4164CE7D40639F4882329F08091A7
:104A00001D018111F2CFDBCF91E0E92E93E0F92E69
:104A1000412CB12CA12C88248394912CBE016F5F72
:104A20007F4F7A8F698F22242394F701408151812F
:104A300066246A94762C20E0822F90E0FC01EE0F31
:104A4000FF1FE40FF51F608171816115710531F061
:104A5000C616D70609F43C012F5FEECF312CFFEFCD
:104A60006F167F0609F448C0F701448130901D019C
:104A7000832D411180E0F82FF1703F2EF701558012
:104A800086819F85992309F4F7C0332009F4F4C087
:104A90000091EC021091ED02511013C0A401062CFC
:104AA00001C0440F0A94EAF7842B86838091FE02AA
:104AB0009091FF028017910720F41093FF0200935A
:104AC000FE02C40102C0880F991F2A95E2F70197E0
:104AD000F70126812817190679F48091AC0390918B
:104AE000AD03009709F44BC00E94A10408171907F1
:104AF00008F045C0F70124824328FFEFAF1ABF0A30
:104B000027E0E20EF11C38E0A316B10409F08DCFC6
:104B10008F85882309F410C1442009F40DC10E9437
:104B2000B0049093AD038093AC0380913903883037
:104B300010F591E0980F9093390399E0FE013A96B1
:104B4000DE01119601900D929A95E1F74DE0849F58
:104B5000C0011124865C9C4F29E0FE013196DC01E6
:104B600001900D922A95E1F72FEF3FEFFC0132877C
:104B70002187D486C3866E96E2E10C943931809108
:104B8000AA035091AB03982FF0E0E0E0851314C026
:104B90009093AA03EE16FF0609F4AECF90E0FC0155
:104BA000EE0FFF1FEE55FC4FB182A082019683707D
:104BB00099278093AB03A0CF682E712CF301EE0FE1
:104BC000FF1FEE55FC4F20813181F7E0F29FD001AD
:104BD000F39FB00D1124AF5FBC4F2D913C91119705
:104BE0003E8F2D8F40E020E030E0E32FF0E0EE0F2D
:104BF000FF1F6D8D7E8DE60FF71F0081118101155E
:104C00001105E1F0F7010190F081E02DFC8FEB8FB1
:104C100020E005C00617170709F4432D2F5FE22F88
:104C2000F0E0EE0FFF1F6B8D7C8DE60FF71F6081AC
:104C300071816115710571F73F5FD7CF4423C9F0CA
:104C4000F701231708F0FD012482EE16FF0621F478
:104C50009093AA03342E50CF981305C0AE17BF0708
:104C600011F49F5F937093012F5F3F4F822F8370EA
:104C70008DCFF0E0E0E0F7CF90E0511020C0B4011C
:104C800002C0660F771F2A95E2F79B012150310978
:104C90008217930731F4442309F44CC0C5010E94E4
:104CA000E904C401062C01C0880F0A94EAF7982F82
:104CB0009095F701868189238683352C1DCFAC0121
:104CC000062C02C0559547950A94E2F7BA01617027
:104CD00077279C012150310982239323892B31F5B9
:104CE000672B21F1F70182819381892BE1F0E98D16
:104CF000FA8D27E011922A95E9F70E94B004282F37
:104D00008B839C8334E03D83F70182819381782FEC
:104D10008887998709811A813C8144E05E816F818F
:104D2000892F0E942E23F7011582BBCFF42FF1703B
:104D30005F2EB7CF532CB5CF9091AA038091AB03D0
:104D4000981729F00E94F123411015CF3BCE0E9405
:104D500099231092AD031092AC030E941705F4CF73
:104D600082E00E94760915CEA6E0B0E0EAEBF6E21A
:104D70000C942D319093D0018093CF01811520E2C6
:104D8000920730F40E94AF162696E2E00C94493167
:104D900080EF89838A830E94B0048160682F9C839E
:104DA0008B8349815A817C8181E090E00E94852437
:104DB000EBCF0F931F93CF93DF938C01EB0169ED42
:104DC00071E08C2F0E94120D892BA1F48091F402C6
:104DD0009091F5020E94720ADD27CF52DE4F888142
:104DE000F801128218828330F1F048F4813059F0D2
:104DF000823081F0DF91CF911F910F91089584301F
:104E0000B9F08530B9F78091D9019091DA01009716
:104E100089F306C08091DB019091DC01009799F342
:104E20000E94B426E7CF8091DD019091DE01F6CF9C
:104E30008091DF019091E001009791F72091D901D5
:104E40003091DA018091DB019091DC01211531056F
:104E5000F1F2009729F7C901E3CFA6E0B0E0E3E360
:104E6000F7E20C942D319093D0018093CF018115FE
:104E700020E2920730F40E9425182696E2E00C9476
:104E8000493180EF89838A830E94B0048160682F52
:104E90009C838B8349815A817C8181E091E00E94CF
:104EA0008524EBCFCF93DF93EC010E942D278091D7
:104EB000F4029091F5020E94720ACE010E94B4267B
:104EC000DF91CF9108950F931F93CF93DF938C01C0
:104ED000862F69ED71E00E94120D892BB1F4C0910B
:104EE000D901D091DA01209781F0F80182818330D5
:104EF00051F4CE010E945227CE010E945227CE01CA
:104F00000E94522702C08430D0F7DF91CF911F91C9
:104F10000F9108950F931F93CF93DF938C01EB01B3
:104F200069ED71E08C2F0E94120D892B09F05CC095
:104F3000FE01FF27D80112968C911297EF52FE4F77
:104F40008130B9F415969C9192FF02C080830AC00B
:104F500090FFFCCF82E080838091DB019091DC01A7
:104F60000097B9F48091D9019091DA010097E1F1AD
:104F700010C08230B9F515968C9182FD28C080FD55
:104F80000BC083E080838091DD019091DE0100976A
:104F900001F10E942D2728C084E080838091DF01E9
:104FA0009091E0010097A9F78091D9019091DA01E1
:104FB0000097F9F00E9452278091DB019091DC016B
:104FC000009739F78091D9019091DA01E2CF85E01D
:104FD00080838091D9019091DA01009729F00E9495
:104FE0005227F0CF86E08083DF91CF911F910F9100
:104FF00008958091DB019091DC01B8CFA6E0B0E08C
:10500000E4E0F8E20C942B310E94B0048C01809112
:105010007701909178018017910781F019821A82A7
:105020000E94B004682F49815A81792F80E090E076
:105030000E94852410937801009377012696E4E07E
:105040000C944731A8E0B0E0E8E2F8E20C942D318E
:1050500066EE7EEF90E080E00E946B3260E082E0DE
:1050600090E00E944D3260E083E090E00E944D327B
:105070001092760160E074E184E090E00E946B326F
:1050800060E086E090E00E944D326FEF87E090E0B4
:105090000E944D3240E050E0BA0188E090E00E946A
:1050A0005F3260E084E290E00E944D3260E087E190
:1050B00090E00E944D3260E08CE090E00E944D3222
:1050C00060E08DE090E00E944D3219821A821B82CE
:1050D0001C821D821E821F82188648E050E068E113
:1050E00070E0CE0101960E943D3240E050E0BA01EE
:1050F00080E290E00E945F3280E00E94F90C0E9402
:10510000CC1540E050E0BA018FE090E00E945F32A1
:1051100040E050E0BA0183E190E00E945F322896BF
:10512000E2E00C9449311F920F920FB60F921124B6
:105130002F933F934F935F936F937F938F939F939F
:10514000AF93BF93CF93DF93EF93FF93D091E90099
:10515000DF708091EC00C82FC17080FDC0E8109214
:10516000E9008091F000877F8093F00078940E949E
:105170006C121092E9008091F00088608093F0003A
:10518000CD2BCF70C093E900FF91EF91DF91CF91CC
:10519000BF91AF919F918F917F916F915F914F914F
:1051A0003F912F910F900FBE0F901F9018951F9257
:1051B0000F920FB60F9211242F933F934F935F934B
:1051C0006F937F938F939F93AF93BF93EF93FF93CF
:1051D0008091E10082FF09C08091E20082FF05C05A
:1051E0008091E1008B7F8093E1008091DA0080FF65
:1051F00024C08091D80080FF20C08091DA008E7F8B
:105200008093DA008091D90080FF9DC080E189BD44
:1052100082E189BD09B400FEFDCF81E08093C70320
:105220008091BA03811109C00E9441030E94E203E8
:105230008091E20084608093E2008091E10080FF31
:1052400017C08091E20080FF13C08091E2008E7F42
:105250008093E2008091E20080618093E20080917F
:10526000D80080628093D80019BC85E08093C70382
:105270008091E10084FF2BC08091E20084FF27C071
:1052800080E189BD82E189BD89B5982F917080FF49
:10529000FBCF8091D8008F7D8093D8008091E10072
:1052A0008F7E8093E1008091E2008F7E8093E20008
:1052B0008091E20081608093E2008091C80388239E
:1052C00009F447C084E08093C7038091C7038091AD
:1052D000E10083FF27C08091E20083FF23C080911B
:1052E000E100877F8093E10082E08093C703109202
:1052F000C8038091E1008E7F8093E1008091E200FD
:105300008E7F8093E2008091E20080618093E200D2
:1053100042E060E080E00E94B0038091F00088608D
:105320008093F000FF91EF91BF91AF919F918F918A
:105330007F916F915F914F913F912F910F900FBE91
:105340000F901F90189519BC1092C7031092BA03C2
:1053500074CF8091E30087FD93E09093C703B5CFAE
:1053600078941F921FB61F9211248F939F93AF932F
:10537000BF938091B6039091B703A091B803B09109
:10538000B9030196A11DB11D8093B6039093B70395
:10539000A093B803B093B903BF91AF919F918F9140
:1053A0001F901FBE1F9018951F921FB61F921124A9
:1053B0008F939F93AF93BF938091B503811113C0D7
:1053C0008091B6039091B703A091B803B091B9034F
:1053D0004196A11DB11D8093B6039093B703A0938E
:1053E000B803B093B903BF91AF919F918F911F9074
:1053F0001FBE1F901895CDB7DEB7E9970FB6F8948A
:10540000DEBF0FBECDBF85B7806885BF85B780681A
:1054100085BF84B7877F84BF0FB6F894A895809125
:105420006000886180936000109260000FBE80E889
:1054300090E00FB6F89480936100909361000FBEE6
:105440008BE796E090934F0180934E010E94AB054D
:105450000E94B10E0E942B0E0E9441030E94E203A3
:105460008091E20084608093E20078948091C70389
:105470008823A1F01091E9001F709091EC00892F12
:10548000817090FD80E8182B1092E9008091E8006F
:1054900083FD0E946C121F701093E90082E084BDAE
:1054A00093E095BD9AEF97BD80936E000E94500ED9
:1054B000811102C00E94CC1582E90E947D0681E91B
:1054C0000E947D0680E90E947D0684E90E947D0697
:1054D0001092910110927C010E943611811102C03C
:1054E0000E94222882E090E00E942932809381016C
:1054F00084E090E00E9437329093B4028093B3022C
:105500000E9442112FEF36E741E0215030404040E9
:10551000E1F700C000000E9442118091910180FFDC
:1055200008C06FEF7FEF90E080E00E946B320E9436
:105530004E0A83E090E00E9429320E94B0098091D7
:105540007E01811173C00E943611811104C00E9436
:1055500022280E94221188E090E00E9431324B0103
:105560005C0184E290E00E942932282F30E040E084
:1055700050E060E070E080E090E000E20E94543192
:10558000282939294A295B292093C7013093C8016A
:105590004093C9015093CA016093CB017093CC0131
:1055A0008093CD019093CE012E7F89F50E94221128
:1055B00088E090E00E9431326B017C0184E290E04F
:1055C0000E942932282F30E040E050E060E070E097
:1055D00080E090E00E945431B22FA32FF42FE52FEA
:1055E0005B0197018601BC29A12BFE29E32BB09317
:1055F000C701A093C801F093C901E093CA01609369
:10560000CB01B092CC018093CD019093CE010E944A
:10561000D60510929B018091C70180FF04C060E015
:1056200086950E94BA1081E080937E0184E091E02B
:105630009093B4038093B30318E1C12ED12C00E4FE
:10564000702EBB24B394AA24A3948091C70300E1D5
:1056500012E1853009F44FC10E944211809182010C
:1056600010919101811362C10E94FE270091B10344
:105670001091B2030115110549F1809183019091B8
:1056800084010E94A1047C01BE01655D7F4F89E019
:10569000DB011D928A95E9F7C8010E94260D8E153F
:1056A0009F05A0F48091B1039091B2039927B4E0D3
:1056B000880F991FBA95E1F7FC01E851FE4F208150
:1056C00022FD04C08D519E4F0E94181280911D0131
:1056D000882301F18091AC039091AD030097D1F044
:1056E0000E94A1042091FE023091FF022817390781
:1056F00088F49091AA038091AB03981709F444C1F0
:105700000E94F1231092FF021092FE021092AD034C
:105710001092AC038091F10280FF1EC080911C01A9
:1057200082FF1AC00E94B0042091FA023091FB025D
:10573000AC01421B530B20911A0130911B014217FF
:10574000530750F025E831E041E0BC018091FC02B4
:105750009091FD020E944D1880919B018823D1F108
:1057600090919A01E091C701E695E91BE0939601BB
:10577000923009F012C1F0E0E954FF4FE4910E2F8E
:1057800010E0A0EAEA2EACE0FA2E8091970188237F
:1057900061F0109297010E94B0049093950180935C
:1057A000940110929901109298010E94B004E09126
:1057B0009401F09195018E1B9F0B8F3F9F4750F4F2
:1057C000E00FF11FF0939501E093940184E991E0DB
:1057D000F70109950E94D60490918E01891769F00E
:1057E00080938E018FB7F8944091B6035091B70320
:1057F0006091B8037091B9038FBF8091C703843063
:1058000009F023CF83E08093E9008091E80082FFD4
:105810001CCF8091E80090E085FF06C00E946003E5
:10582000882309F40BC191E08091E8008B77809385
:10583000E800992309F409CF009192011091930196
:1058400089810115110509F416C18E3F09F0A5C122
:105850008A81833020F08550833008F09EC1EA8130
:10586000EE3008F09AC1F0E0EE5BFC4C0C94013194
:105870008091C703843009F434C010929B01809159
:10588000800181110DC0A09280018091C701982FE5
:10589000917090937F018E7F8093C7010E947C0A54
:1058A0001092B5030FB6F894A895C09260000FBE91
:1058B0007092600083B7817F846083BF83B781600B
:1058C00083BF7894889583B78E7F83BF0FB6F89493
:1058D000A8958091600088618093600010926000BC
:1058E0000FBE8091C603882331F00E94421180913F
:1058F00091018111F7C38091C703853009F4B8CFB6
:105900000E945E120E94D6041092800180917F0155
:10591000882349F08091C70181608093C70160E0CE
:1059200086950E94BA100E948B0F96CEE82EE12633
:1059300000E0FF24F3948E2D8F21A1F00CAB1DAA63
:105940000E94B0049FAB8EABB8AE91E0812F8F2147
:1059500009F490E099AF4CA95DA96EA97FA988AD23
:105960000E9485240F5FFF0C033029F710938201FA
:105970008FB7F8944091B6035091B7036091B80384
:105980007091B9038FBF72CE0E9499231092AD031C
:105990001092AC030E941705BDCE963061F4E695D7
:1059A000F0E0EC54FF4FE4910E2F10E0F1EFEF2EFA
:1059B000FBE0FF2EEACE9C3059F4F0E0EF54FF4FAD
:1059C000E4910E2F10E0E3EAEE2EEBE0FE2EDDCEAA
:1059D00008E210E058E2E52E5BE0F52E9F3009F476
:1059E000D4CE9A3149F4EFEAF0E00591149177E6CC
:1059F000E72E7CE0F72EC9CE04EF11E041EFE42E54
:105A00004AE0F42E9B3109F4C0CE00ED17E03BE9EB
:105A1000E32E34E0F32E9C3109F0B7CE8E2F63E0F5
:105A20000E94BF30E92FF0E0E455FF4FE4910E2FC4
:105A300010E065EFE62E6EE0F62EA7CE00E210E055
:105A40009E012F5F3F4F79018091E80085FD0AC0DC
:105A50008091E8008B778093E8000E9460038823A0
:105A600099F3E1CE8091F100D7018D937D01015032
:105A7000110951F7D8CE893009F418C120F58430C6
:105A800009F4ACC050F4823009F46DC008F097C03E
:105A9000813009F464C08FEF4AC3863009F4B4C082
:105AA00008F4A7C0873009F4B2C08830A1F78A8112
:105AB000813809F4F0C008F0E2C0803809F06DC008
:105AC0008091CA014EC0803109F432C1E0F58D30B9
:105AD00009F4FFC028F48C30F1F680E18A835DC0C0
